:0400000002002132A7
:03000B000202816D
:0100130032BA
:03001B000201DE01
:10007A00752000752110752200752300E4F524F51A
:0A008A0025F52BF52CF52D02001EC4
:03001E000200DD00
:10009400AE82AF83EE4F700AC291D292D293D294C1
:1000A400802EBE010DBF000AD291C292D293D29487
:1000B400801EBE020DBF000AD291D292C293D29486
:1000C400800EBE030BBF0008D291D292D293C29489
:1000D400E52E9003CD93F5A022C290758D3C758BCF
:1000E400B09003DDE493FEA3E493FF8F8C8E8A75B6
:1000F400891175885075A88AE525C4540FFE8E268B
:10010400AE24E525C454F0CEC4CE6ECE54F0CE6EEB
:10011400C4540FFE8E27E524C4540FFE8E28E52414
:10012400C454F0C4540FFE8E297F00BF0400502C29
:100134008F057E00EF2426F9872E8D828E83C007DB
:10014400120094D0077E00BE0A00500D7D00BD0849
:100154000050030D80F80E80EE0F80CF1202F78559
:10016400822174F02521400685212A752B01741003
:10017400B5210280030200FC7401B52B0280030246
:1001840000FCAE24E525C454F0CEC4CE6ECE54F0AB
:10019400CE6EFFAC2A7D00EC2EFEED3FFF8E248F49
:1001A40025740CB52A20752C01752D007520007F4F
:1001B40000BFC800501EEF2401F582E43400F5832B
:1001C400740CF00F80EB740DB52A09752C00752D95
:1001D40001752200752B000200FCC0E0C0F0C08253
:1001E400C083C0D075D0187401B52C4874F4252A86
:1001F40040157401B52B10E5202401F582E4340088
:10020400F583E52AF0800EE5202401F582E434002C
:10021400F583740CF00523E52075F002A424C9F5D8
:1002240082740035F0F583AE237F00EEF0EFA3F087
:100234000520F5237401B52D2BE52275F002A424C5
:10024400C9FE740035F0FF8E828F83E0FCA3E0FDCD
:100254001CBCFF011D8E828F83ECF0EDA3F0EC4DEE
:1002640070020522E520B52203752D00758D3C75BD
:100274008BB0D0D0D083D082D0F0D0E032C0E0C0F8
:10028400F0C082C083C0D075D00874F42521402307
:10029400E52D701FB290E52175F002A424DDF582EE
:1002A400740335F0F583E493FEA3E493FF8F8C8EFF
:1002B4008A80357401B52D30E5222401F582E434B9
:1002C40000F583E0FFBF0C04D290801CB290EF7560
:1002D400F002A424DDF582740335F0F583E493FE83
:1002E400A3E493FF8F8C8E8AD0D0D083D082D0F0B9
:0302F400D0E03225
:1003CD00C0F9A4B0999283F880908883C6A1868ED7
:1003DD008CF8F3F85CF9B9F915FA68FAB9FA05FB76
:1003ED004CFB90FBD0FB0CFC00000000000000005B
:1003FD0000000000000000000000000000000000F0
:10040D0000000000000000000000000000000000DF
:10041D0000000000000000000000000000000000CF
:10042D0000000000000000000000000000000000BF
:02064D000000AB
:1002F700752EEE752FDE7530BE75317E7532ED7554
:1003070033DD7534BD75357D7536EB7537DB75387F
:10031700BB75397B753AE7753BD7753CB7753D7744
:10032700753E00753F0475400875410C75420175AF
:10033700430575440975450D7546027547067548A9
:100347000A75490E754A03754B07754C0B754D0FAA
:10035700754EFE754FFD7550FB7551F77F10E4F52F
:1003670052F553C3E5529404E55364809480504F8B
:10037700E552244EF98780E5522552FBE55333FCBD
:10038700EB2BFBEC33EB242EFAE4F554F555C3E5E0
:10039700549404E55564809480501AE5542AF9E78B
:1003A700B58008EB243E2554F987070554E4B55476
:1003B700DD055580D90552E4B552A8055380A48FB1
:0203C700822290
:06005000E478FFF6D8FD84
:10002E007958E94402601B7A039003F7780175A0B2
:10003E0000E493F2A308B8000205A0D9F4DAF27531
:02004E00A0FF11
:100056007800E84400600A790175A000E4F309D845
:10006600FC7800E84400600C7900900001E4F0A3FD
:04007600D8FCD9FADF
:0D0021007581551203C9E582600302001EBF
:0403C9007582002217
:00000001FF
